:100000000C9498030C94B5030C94B5030C946F29CD
:100010000C94B5030C94B5030C94B5030C94B50380
:100020000C94B5030C94B5030C942F2F0C9403304F
:100030000C9417280C94B5030C94B5030C94B503D9
:100040000C94B5030C94B5030C94B5030C94B50350
:100050000C94B5030C948F280C94B5030C94B50341
:100060000C94B5030C94B5030C94B5030C94B50330
:100070000C94B5030C94B5030C94B5030C94B50320
:100080000C94B5030C94B5030C94B5030C94B50310
:100090000C94B5030C94B5030C94B5030C94B50300
:1000A0000C94B5030C94B5030C94B50335001E00F5
:1000B0001F002000210022002F002B0014001A0036
:1000C0000800150017002D00E100040016000700CD
:1000D00009000A00E300E0001D001B0006001900F3
:1000E0000500E00000000000000000000000787C37
:1000F0002C003000230024002500260027002A00C1
:100100002E001C0018000C001200130031004C00DF
:100110000B000D000E000F0033003400E60011004C
:1001200010003600370038002800E500777C00001A
:10013000000000000000000001003A003B003C000D
:100140003D003E00010001003F0040004100420030
:10015000430001008200440045006800690001007E
:100160000100010001000100010001000100010087
:10017000000000000000000000000100010001007C
:100180000100010001000100010001000100010067
:1001900001000100010001000100010050005100B8
:1001A00052004F0001000100E600010001000100C3
:1001B000010001000100010001000000000000003A
:1001C000000000002B001E021F022002210222025A
:1001D00000002B001E021F022002210222024D00FD
:1001E000E000000000000000000000004600E10008
:1001F0003F004000410042004300E00000000000DA
:100200000000000000002C00010000002302240276
:100210002502260227022A004E002302240225027C
:10022000260227022A00E6002D002E002F003000B3
:1002300031003500E6002D022E022F02300231027D
:100240003502E50001000000000000000000000091
:100250000001010101010101010102020202020289
:10026000020202030303030303030304040404045C
:100270000404050505050506060606060707070723
:100280000708080808090909090A0A0A0B0B0B0CD8
:100290000C0C0D0D0D0E0E0E0F0F0F101011111175
:1002A00012121313141415151616171718181919F6
:1002B0001A1A1B1B1C1D1D1E1E1F2020212222235B
:1002C0002424252626272829292A2B2C2D2D2E2F9C
:1002D00030313232333435363738393A3B3C3D3EB3
:1002E0003F404142434445464748494A4C4D4E4FA2
:1002F00050515354555658595A5B5D5E5F61626464
:10030000656668696B6C6D6F7072737577787A7BF0
:100310007D7E8082838587888A8C8E8F9193959647
:10032000989A9C9EA0A2A3A5A7A9ABADAFB1B3B567
:10033000B7BABCBEC0C2C4C6C9CBCDCFD1D4D6D843
:10034000DBDDDFE2E4E7E9EBEEF0F3F5F8FAFDFFE1
:10035000FD377A585A000004E6D6B446020021015F
:1003600016000000742FE5A3E0059101615D003DDA
:100370008889C65436C3174FE4FC54586FA80AAD99
:10038000079684CBABDCAA38E012CF6F008D21EC4E
:10039000F69856B8C5B5B98712B58C561FE44B4EC2
:1003A00039ECE1DA911F90EA72F80CFDF76C16DC7B
:1003B0002183A313757A967738849707128DBDD35E
:1003C000D28321F6446F86C74C6096368BD2A271D9
:1003D000D89DF5EE36972E0BB3676E21BDE2DCB9E2
:1003E0009DC719DDC81FEF9AB815222695D8287B1E
:1003F0002517B23B2B22BDA97EA2647A27C9C36F01
:1004000087FD93FB5BE3A382A2ED570B06B2F3DA01
:10041000F8C1F17D138AF24A0325F470A7433880AE
:10042000B0A02BA7147DE360FE3783E4AAF4EAC2F0
:10043000113BF9EEC349680924D9A649A6AB602F40
:100440002C10767C9163555342C52094C37D38DCD3
:1004500092F78E6F6E366208C324EDA0B3F739327F
:10046000F9FE7C70C4DE1DF7D8D557686A09C873D9
:100470003DDFDB2BFD6F6D2EB4AB26D23598F7A890
:10048000DD836D46D57B991D081FE761D18A5B7DB1
:100490007F56B2F3B18A0808A57E89CA31B1547675
:1004A000282991E58544C38CBB387D2F9655C27BA6
:1004B00010678853B1494262B941DFAB83A75668E0
:1004C000B23BBEE3A6A6D6DC6A56B184CEE07E0F70
:1004D000000000009B3379505127D9B70001FD027D
:1004E000920B0000B44B850BB1C467FB0200000007
:1004F0000004595A00000000000000002A2B2800C8
:1005000000000000000000000000000000000029C2
:10051000000000002C1E3420212224342627252E02
:10052000362D3738271E1F2021222324252633333A
:10053000362E37381F0405060708090A0B0C0D0E66
:100540000F101112131415161718191A1B1C1D2F32
:100550003130232D350405060708090A0B0C0D0E52
:100560000F101112131415161718191A1B1C1D2F12
:100570003130354C00000000000000000000000099
:10058000000000000000000000000000000000006B
:1005900000000000000000007E0F00D4FFFFFFC736
:1005A000000000781C037600690061006C003A00CE
:1005B00066003600340063003200620033006300DE
:1005C00000001003770069006E00670073003600BA
:1005D00030000000160363006F00640065006600D1
:1005E00072006500730063006F00000004030904DB
:1005F00009025B00030100A0FA09040000010301E5
:1006000001000921110100012244000705810308AE
:10061000000109040100020300000009211101008A
:1006200001222200070582032000010705030320A1
:10063000000109040200010300000009211101006A
:1006400001226D0007058403200001120100020051
:10065000000008EDFE86040002010203010660FFAF
:100660000961A1010962150026FF00952075088126
:10067000020963150026FF00952075089102C00548
:10068000010980A101850319012AB700150126B7C8
:1006900000950175108100C0050C0901A1018504B8
:1006A00019012AA002150126A002950175108100EA
:1006B000C005010906A1018506050719E029E7150E
:1006C0000025019508750181020507190029EF151C
:1006D00000250195F075018102050819012905958C
:1006E0000575019102950175039101C00501090687
:1006F000A101050719E029E71500250195087501F5
:1007000081029501750881010507190029FF15006F
:1007100026FF0095067508810005081901290515B1
:10072000002501950575019102950175039101C0A0
:1007300011241FBECFEFDAE0DEBFCDBF11E0A0E095
:10074000B1E0E4E4F6E602C005900D92A83FB107DF
:10075000D9F724E0A8EFB1E001C01D92AB31B20798
:10076000E1F70E9447180C94C8320C9400008330C3
:10077000B8F46A30A8F4473098F450E097E0699FE5
:10078000400D511D1124FA0196E4899FE00DF11DE1
:100790001124EE0FFF1FE455FF4F859194910895AA
:1007A00081E090E008959C013A9521153F4150F574
:1007B000FC01EE27F170BC0166277270AC01442782
:1007C00054709C012227387094FF0EC080E1EF2BFB
:1007D00009F480E0672B09F08062452B09F0806402
:1007E000232B89F08068089581E0EF2B09F480E0E5
:1007F000672B09F08260452B09F08460232B19F0E8
:100800008860089580E00895CF93DF93EB010E9404
:10081000D303FE010995DF91CF910895CF93DF9324
:10082000EC01805E9109089720F06BEF78E020974B
:1008300011F462EA76E0CE010E9404048C2F0E943B
:100840001706DF91CF910895CF93DF93EC010E94BB
:100850005706CE01805E9109089720F062E079E0AA
:10086000209711F469EA76E0CE010E940404DF913A
:10087000CF91089581E008950E943A0408950E945E
:100880003A04089581E008950E943A0408950E9470
:100890003A0408950E9447040895089508950E9417
:1008A0004D04089508950895A6E0B0E0EAE5F4E067
:1008B0000C94EC3149835A839E833091FF018981E6
:1008C0009A8131111AC03E81332399F0222389F095
:1008D0000E94430A182F682F89819A810E941F0A5B
:1008E00069817A81812F0E94E7112696E3E00C94BA
:1008F00008320E94310A182FF3CF0E94430A6981FF
:100900007A81F1CFFC01262F408151816281738170
:10091000848195810E9454040895CF93DF93EC0164
:1009200061E00E948204BE010E943C04882359F0C9
:1009300061E0CE010E948204BE010E943F048170EA
:10094000DF91CF91089580E0FACF0F931F93CF935B
:10095000DF93EC0160E00E9482048C01BE010E94E2
:100960004E04BE01C8010E944F04DF91CF911F9138
:100970000F91089591E001C0990F8A95EAF7892FA8
:100980000E9466090895CF93C82F81E00C2E01C004
:10099000880F0A94EAF70E942F0F8C2F0E94BA0446
:1009A000CF91089581E008950E94D20408950E9495
:1009B000D2040895CF93C82F0E941B098C2F0E9448
:1009C000D4048C2F0E94D7042FEF84E39CE02150A5
:1009D00080409040E1F700C00000CF91089581E091
:1009E0000E94DA040E94B328089580E00E94DA048D
:1009F0000E94C42808950F931F93CF93DF93EC01B7
:100A00008B01FB01858181110E94811CB801CE01FF
:100A10000E944404811106C080E0DF91CF911F91B4
:100A20000F910895B801CE010E944A048823A1F3D2
:100A3000B801CE010E945724882371F3B801CE017A
:100A40000E94EC1D882341F3B801CE010E9465236A
:100A5000882311F3B801CE010E94F2208823E1F22D
:100A6000B801CE010E94C8208823B1F2B801CE019E
:100A70000E946318882381F2B801CE010E94A92345
:100A8000882351F2B801CE010E943A13882321F243
:100A9000F8018581882361F0C330FCE7DF07E9F0C6
:100AA00058F4C115ECE7DE07A9F0C130DC47B9F016
:100AB000C8010E944204B1CFCB358CE7D807A9F01A
:100AC000CC35ECE7DE0771F0CA35DC4789F70E94C8
:100AD0000A0FEECF0E94EF049FCF0E94120F0E94D8
:100AE000F5049ACF0E94000FE3CF0E940E0FE0CFD3
:100AF000CF93DF93EC0161E00E948204BE010E946B
:100B0000FB04DF91CF9108950E9452040E94D927DF
:100B10000E94AC050E94A01A08950E94B0050E9490
:100B20003E1C0E9453040E94DE27089581E0089530
:100B30000895CF93DF93D82F0E949605C82F88235E
:100B400019F08D2F0E9498058C2FDF91CF91089579
:100B500008950E949905089580E00E94A9050895CE
:100B60000E94F8250E94A9050895CF930E94F825B8
:100B7000C82F8091FA018C1779F0C093FA010E9476
:100B800083286093FB017093FC018093FD01909397
:100B9000FE018C2F0E94A905CF910895ADE0B0E031
:100BA000E4EDF5E00C94ED31488759876A877B873F
:100BB0008C879D8791110E94D70D1F8286E0FE01D0
:100BC0003896DE01119601900D928A95E1F7809199
:100BD000310382FF0CC00E949A0D882319F082E035
:100BE0000E94D40E0E94810D81110E942A0E8D81D7
:100BF00081110DC029813A814B815C816D817E819B
:100C00008F810E94FC0C2D96E2E00C940932CE01FB
:100C100001960E948D048111EDCFF5CFFC01248156
:100C2000213021F4808191810E94700A0895CF9330
:100C3000C82F882399F08CEF8C0F813A88F48C2F81
:100C40000E949126882329F08C2F0E9437270E942A
:100C50009A0E8C2F0E941D270E949A0ECF91089504
:100C600080E28C0F883048F4C77081E001C0880FA3
:100C7000CA95EAF70E94BA0DEFCFEBE5EC0FE3302F
:100C800040F4F0E0EF55FE4F808190E00E94252671
:100C9000E5CFC85ACB3110F7EC2FF0E0EE0FFF1F75
:100CA000E559FE4F808191810E944A26D7CF882343
:100CB00039F19CEF980F913A28F40E9437270E944F
:100CC0009A0E089590E2980F983050F4877091E052
:100CD00001C0990F8A95EAF7892F0E94C00DEFCFC6
:100CE0009BE5980F933028F490E080E00E94252641
:100CF0000895885A8B3120F490E080E00E944A26C3
:100D000008951F93CF93DF93182FEB010E941706CE
:100D1000209739F4812F0E945706DF91CF911F91C0
:100D200008958FE99FE00197F1F700C00000219737
:100D3000EFCF70E060E0893311F460E570E00E946D
:100D400081060895882321F00E94BA0D0E949A0E10
:100D50000895882321F00E94C00D0E949A0E0895E4
:100D6000B0E0A0E0E6EBF6E00C94E6316C01D62FA3
:100D7000C72FFC010581F680F2949FE0F9220E94C2
:100D8000B00DE82E8823F9F0E02E0023E1F08C2F3F
:100D9000807F803461F080E28D0F883010F18C2FDD
:100DA000807E803221F4D230E0F0FF20D1F08091BB
:100DB000310382FF16C082E00E94D40E0E94B00D63
:100DC00091E0E82EE926BC2EB2948FE0B822FBE039
:100DD000FB1508F460C0EB2DF0E0E653FD4C0C94DD
:100DE000D031E12CF0CF1C2F1F70C07F11F0129575
:100DF000107F002399F0112359F080E28D0F883085
:100E000010F0D11107C0812F0E94BA0D0E949A0ED6
:100E10008D2F39C0812F0E94CA0DF8CF8D2F0E94CF
:100E200057061123C1F180E28D0F883010F0D111E7
:100E300004C0812F0E94C00D03C0812F0E94D00DDD
:100E40000E949A0E28C01C2F1F70C07FC03211F064
:100E50001295107FDD2349F0D13009F45BC00023E7
:100E600009F467C0FF2051F1D3CF8091310382FD97
:100E700021C0002359F0112329F0812F0E94BA0DBF
:100E80000E949A0E80E00E94170605C080E00E9432
:100E900057061111CECFEB2DE850FF0B349708F019
:100EA0005AC10E94F8250E94A905CDB7DEB7E9E036
:100EB0000C9402320023D1F0F11004C0812F0E9463
:100EC000A206E9CF21E0F21204C0812F0E94FA0DA0
:100ED000E2CF35E0F312DFCF812F0E94A206812FEF
:100EE0000E94110E812F0E94DE0DD5CFF1100AC095
:100EF000812F0E94A906812F0E94110E812F0E942E
:100F0000EA0DC9CF81E0F812C6CF0E94B70D812348
:100F100011F2EECF002329F095E09F1508F4BBCF26
:100F2000CDCFE4E0EF1508F4B6CF812F0E94A906DB
:100F3000B2CFFF20D1F3D93349F4FFEF27EE33E0EE
:100F4000F15020403040E1F700C000008D2F0E949A
:100F50005706A1CF8C2F86958695837069F08130D6
:100F600009F099CF8D2F9C2F9370011102C080E062
:100F700090E00E944A268FCF8D2F9C2F93700111F5
:100F800002C080E090E00E94252685CF8C2F8370E0
:100F900079F5011180CF4D2F429546954770440F4A
:100FA000440F8D2F8F70042E01C0880F0A94EAF72A
:100FB0002D2F2071D4FF07C02FE030E001C0220F99
:100FC0004A95EAF72095C695C695C370822BC23024
:100FD00049F058F4C13019F00E946F095CCF0E94AB
:100FE000690959CF0E94750956CF0E94660953CFEF
:100FF0008695002311F08C2F8170882309F44BCF44
:101000004D2F429546954770440F440F8D2F8F709A
:10101000042E01C0880F0A94EAF72D2F2071D4FF07
:1010200007C02FE030E001C0220F4A95EAF7209573
:10103000C695C695C370822BC23049F058F4C130B2
:1010400019F00E94BE0927CF0E94B80924CF0E9440
:10105000C40921CF0E9481091ECFCF70002329F03F
:101060008C2F0E9493098D2F2ACF8D2F0E94A906C5
:101070008C2F0E949F090FCFD23F51F160F4D03FD7
:10108000B9F0D13F81F0002309F455C0F110C0CE72
:101090008C2F8F7121C0D33F11F1D43FA1F78091E4
:1010A000310382FD26C08C2F8F71002311F314C0F1
:1010B000002349F084E08F1508F4EDCE8C2F8F715A
:1010C0000E94AC09E8CE95E09F1508F4E4CEF6CF77
:1010D0008C2F8F710111CDCF0E949309DCCE00239C
:1010E00029F08C2F8F710E948A09D5CE0E94860923
:1010F000D2CE0023A9F00E94960D843041F40E94C4
:10110000CA0E8C2F8F710E949F09E12CC4CEE4E09F
:1011100063E0EF15D0F38C2F8F710E94AC0EF5CFEA
:10112000F4E0FF1520F40E94CA0E64E0F4CF81E0E1
:101130000E94D40EEACFFF2059F0D93309F006CF30
:101140002FEF37EE83E0215030408040E1F7FCCEB6
:101150008C2F8F718ECFEE2009F4A7CE0E94960DB2
:1011600080FDA3CEF60115820E94900D0E94930986
:10117000C6010E94D8080E94900D0E949F0995CE3A
:101180000F931F93CF93DF93EC01688179818D8159
:101190000E947B0A8C010E94CA090E946509B8015D
:1011A000CE010E94B006DF91CF911F910F9108955B
:1011B000CF93DF93EC018C81882399F0CE010E94BC
:1011C0007805811111C00E94B00D882351F08D81E6
:1011D000882339F08091310382FF03C082E00E94AE
:1011E000D40EDF91CF910895CE010E94C008CE01A8
:1011F0000E94A504F6CF882321F00E94CA0D0E9408
:101200009A0E0895882321F00E94D00D0E949A0E14
:10121000089590E080E00E94252690E080E00E9402
:101220004A260E94D70D0E949A0E08950E945127C7
:101230000E94090908950E94C70D0E941609089589
:1012400092959F70963091F058F4925F9F70923013
:1012500058F4803F19F030F4883E30F481E008956E
:101260009A5FF4CF843FD1F380E00895883EB0F3D5
:10127000813FD1F7F3CFFC012481222339F0808113
:1012800091810E94700A0E942009089580E00895CB
:10129000A6E0B0E0EEE4F9E00C94ED312696E2E051
:1012A0000C940932A7E0B0E0E8E5F9E00C94ED31E8
:1012B0002796E2E00C94093208950E945C09089593
:1012C0000E945D0980931C02089508950E946009A0
:1012D000089590911C02892B0E94600908959091B5
:1012E0001C0289230E946009089590911C0289279D
:1012F0000E94600908950E945C0908950E947B097C
:1013000008950E947E0980931B02089580E00E9448
:101310008109089591E001C0990F8A95EAF7892F14
:101320000E948109089521E030E001C0220F8A95D2
:10133000EAF780911B02822B0E948109089521E027
:1013400030E001C0220F8A95EAF7209580911B02B8
:1013500082230E948109089521E030E001C0220F1C
:101360008A95EAF780911B0282270E9481090895DD
:1013700090911B02892B0E948109089590911B0274
:1013800089230E948109089590911B0289270E9458
:10139000810908950895262F277091E001C0990FC3
:1013A0002A95EAF723E0769567952A95E1F7FB0100
:1013B000EE0FFF1FE60FF71FE40FF51F50E040E0B0
:1013C000682F70E08191DF0111979B01042E02C00C
:1013D000369527950A94E2F721702195282729232D
:1013E00028272C934F5F5F4F4330510559F70895DD
:1013F000A82FA77023E0969587952A95E1F7FC0121
:10140000EE0FFF1FE80FF91FE60FF71F50E040E057
:1014100080E0219130E00A2E02C0369527950A948B
:10142000E2F721703327042E01C0220F0A94EAF755
:10143000822B4F5F5F4F4330510559F70895262F98
:101440009A3070F4873060F4682F70E087E0989FDE
:10145000600D711D112440E052E0822F0E94CB09E3
:101460000895292F9A3068F4873058F490E060E0AE
:1014700072E037E0239F800D911D11240E94F8092E
:10148000089580E00895CF92DF92FF920F931F930B
:10149000CF93DF936C0100911B0280911C02082BFB
:1014A000C2E0D0E010E0FC2EC8010C2E02C09595E1
:1014B00087950A94E2F780FD0CC02197A0F7F12CE4
:1014C0008F2DDF91CF911F910F91FF90DF90CF90E3
:1014D0000895B6018C2F0E940212019771F3F0CF8C
:1014E000CF93DF93EC010E94430ABE010E940212D7
:1014F000DF91CF9108951F93CF93DF93EB019091EC
:10150000FF01992339F0CB010E94700ADF91CF913E
:101510001F910895882369F0CB010E94430A182F78
:10152000682FCE010E941F0ABE01812F0E94021265
:10153000EDCFCB010E94310A182FF6CFE1E0F0E0A9
:10154000DF0102C0AA0FBB1F6A95E2F7BD01DF01F0
:1015500002C0AA0FBB1F4A95E2F76A2B01C0EE0F2B
:101560002A95EAF7962F9823961302C08E2B08959A
:10157000E0958E230895242F462F682F80911B021B
:101580000E949E0A0E94810908951F93CF93DF93C2
:10159000C0911D0217E080911E028C1304C0DF91E0
:1015A000CF911F910895D0E01C9FF0011D9FF00D79
:1015B0001124E15EFD4F208131814281538164819C
:1015C000758186810E9452092196C770E4CF2091CF
:1015D0005702309158024091590250915A0260913D
:1015E0005B0270915C0280915D020E945209089535
:1015F000CF93DF9380915D02807F09F04DC0809191
:101600005C02882309F448C0E0911D0250911E023B
:10161000C0915802D09157026091590270915A02BC
:1016200047E05E17C9F18E2F90E0E49FF00111248E
:10163000E15EFD4F2481222391F1489FF001499FF3
:10164000F00D1124DF01A15EBD4F11962C91119771
:101650002C1325C02C912D1322C015962C91159773
:1016600021111DC012962D913C91261B370B283C51
:101670003105A8F480915D028F70806180935D02D6
:10168000EB5DFD4F80818F708061808387E592E004
:101690000E94D8080E94C50ADF91CF910895FC01ED
:1016A0003196E770BECF482F20911D0290911E0207
:1016B00057E0291302C080E0089530E0529FF00106
:1016C000539FF00D1124E15EFD4F8181681306C028
:1016D0008081481303C085818111EECF2F5F3F4F7A
:1016E0002770E7CFA4E1B0E0E8E7FBE00C94E3313A
:1016F0008C0186E0F801DE011F9601900D928A951B
:10170000E1F7F8018481E58097E5A92E92E0B92EF2
:1017100090915B0291111FC08823D1F0EE20A9F0B7
:10172000C8010E943B09F82E882379F087E0F80170
:10173000D50101900D928A95E1F7C5010E940E0630
:101740000E94F80A0E94E70A5FC0C8010E94D808F8
:10175000FF24F39459C0C080D18082809380F090A0
:101760005C022091590230915A02A401421B530B92
:10177000FF2009F4F9C0483C510508F0A7C08823B0
:1017800009F442C09091580280915D02282F207F79
:1017900009F05CC09D1116C090915702C91212C089
:1017A000E1104EC08F70806180935D020E94E70A55
:1017B00087E592E00E94D80880915D02F801868357
:1017C000F12C22C0E1103CC06D2D8C2D0E94530BDA
:1017D0006D2D8C2D0E94530BE82E8111F1CFCF86F9
:1017E000D88A8F8598890E94700A292F22952F7098
:1017F000243078F49F702230A8F09923B9F0F801D2
:101800009681907F99F4FE2C8F2D6496ECE00C94D9
:10181000FF312A5F2F70223068F0C8010E94D8087B
:10182000EF2CF1CF992311F0882369F3805E883083
:1018300050F3F3CF803F38F3815F833070F7E3CF0D
:1018400080915D02816080935D02BACF9D1113C0CB
:1018500090915702C9120FC0E1100DC08683C801D4
:101860000E94D80887E0F801A7E5B2E001900D9248
:101870008A95E1F767CFC8010E943B09882309F4E4
:1018800064CFEE2009F461CF80915D02803288F050
:101890002091570230915802398728879B868A8683
:1018A00090915B029C871D868E87CE0108960E94D0
:1018B000D80887E0F801A7E5B2E001900D928A957B
:1018C000E1F70E94F80A0E94E70A42CF90915D0278
:1018D000292F207FA1F4682D9A8A898AA6017A8906
:1018E0009E2D0E94480987E592E00E94D80887E073
:1018F000F50111928A95E9F70E94E70A61CF8823E2
:1019000009F482CF809158028D1110C08091570246
:10191000C8120CC0E1100AC09683C8010E94D80802
:1019200087E0F50111928A95E9F76ECFC8010E9410
:101930003B09882309F409CFEE2009F406CF8091F2
:101940005D02803208F4B5CF2091570230915802E1
:101950003A8329839C828B8290915B029D831E82B5
:101960008F83CE010196A3CF483C5105B8F588235B
:1019700009F4EECEFE2CEE2009F4E7CE8091580259
:101980008D111EC080915702C8121AC080915D024D
:1019900080FD0DC0982F907F51F08683903F09F411
:1019A0005ECF982F907F905F8F70892B57CF87E005
:1019B000F801A7E5B2E001900D928A95E1F724CFF6
:1019C000C8010E943B09811174CF80915D02816042
:1019D00080935D02C8010E94D80816CF682D9A8AAC
:1019E000898AA6017A899E2D0E94480987E0F5011F
:1019F00011928A95E9F7A6CEAEE0B0E0E2E0FDE014
:101A00000C94EC31288739874A875B876C877D8700
:101A10008E87CE0108960E94720B8823B1F06C85E8
:101A2000662341F0288539854A855B857D858E85CD
:101A30000E94520917E080911D0290911E028913A5
:101A40003DC02E96E3E00C94083287E0FE01389604
:101A5000DE01119601900D928A95E1F78C8588231D
:101A600049F320911E0230E0C90101968770992741
:101A700040911D024817190699F097E0929FD001F6
:101A8000939FB00D1124A15EBD4FFE0131960190D0
:101A90000D929A95E1F780931E020E94C50ACACF63
:101AA0000E941B0910921E0210921D0287E0E7E5BA
:101AB000F2E0DF011D928A95E9F7BCCF819FC0015A
:101AC0001124815E9D4F0E94720B882309F4B9CFC7
:101AD000E0911D021E9FF0011124E15EFD4F208167
:101AE0003181428153816481758186810E945209CE
:101AF00080911D0290E001968770992780931D02C6
:101B00009ACF0E9477282091890230918A02821B05
:101B1000930B9C0181E02838334108F480E008955C
:101B20008091880286958695869508958091880291
:101B3000877008950E94772820918602309187024D
:101B4000821B930B8838934148F08091880282FB76
:101B5000882780F991E089278170089580E0FCCF83
:101B600090918802977081E009F480E00895809157
:101B7000B60208959091B602892B8093B60208951B
:101B800080959091B60298239093B6020895109292
:101B9000B60208959091B502892B8093B5020895FD
:101BA00080959091B50298239093B5020895109274
:101BB000B502089508950E94DA0D089590918B0260
:101BC000292F2823281729F0892B80938B020E9424
:101BD000DB0D089590918B02292F282331F08095F9
:101BE000892380938B020E94DB0D089508950E9443
:101BF000F60D0895CF93C82F80918C028C238C17FB
:101C000071F00E94772890938A02809389028091D4
:101C10008C028C2B80938C028C2F0E94F70DCF911D
:101C2000089590918C02292F282381F08095892393
:101C300080938C02882359F00E94772890938A021F
:101C40008093890280918C020E94F70D089590E0A4
:101C500080E0F4CF80918C02882349F010928C02AE
:101C600010928A021092890280E00E94F70D089576
:101C7000CF93C091B6028091B502C82B80918C029F
:101C8000882369F00E94810D81110E942A0E8091A3
:101C90008C02C82B0E946F2681110E942A0E8C2F65
:101CA000CF910895CF93DF93C0910201D0910301AA
:101CB0000E94380E8883C0910201D091030148E050
:101CC00050E06EE772E0CE010E945332892B59F04A
:101CD00088E0FE01AEE7B2E001900D928A95E1F74F
:101CE000CE010E940C26DF91CF910895CF93DF9310
:101CF000C0910001D09101010E94380E8983C091EA
:101D00000001D091010140E250E06EE572E0CE01A9
:101D10000E945332892B59F080E2FE01AEE5B2E019
:101D200001900D928A95E1F7CE010E941726DF916E
:101D3000CF9108950E94B427813039F48091300307
:101D400087FF03C00E94760E08950E94520E0895E8
:101D500008950E94A80E08959091310392FF17C034
:101D600098E0899F90011124622B609388020E9461
:101D700093090E947728909387028093860280912E
:101D800088028695869586950E94A90E08950E94E0
:101D90009309089510928802109287021092860289
:101DA00080E00E94A90E0895909188028095892371
:101DB00080938802282F277069F4891759F0909131
:101DC000310392FF07C08695869586950E949F09EC
:101DD0000E94CA0E08959091310392FB222720F9A8
:101DE000281769F080FB92F99093310380913003BA
:101DF000909131030E943A0F82E00E94D40E089520
:101E00008091310382FB882780F991E089270E9425
:101E1000EB0E089581E00E94EB0E089580E00E9491
:101E2000EB0E08956FEF7FEF90E080E00E94B232FA
:101E3000089590E080E00E947E32853E9E4F19F426
:101E40000E94F223089580E0089582E090E00E94CD
:101E50007032089583E090E00E9470320895682FF8
:101E600083E090E00E949432089584E090E00E9424
:101E70007E320895BC0184E090E00E94B232089561
:101E8000AB01BC018FE090E00E94A6320895AB0147
:101E9000BC0183E190E00E94A632089560E070E00A
:101EA000CB010E94470F089560E070E0CB010E94D3
:101EB000400F0E944E0F0895A8E0B0E0E2E6FFE078
:101EC0000C94ED3165EE7EEF90E080E00E94B2323E
:101ED00060E082E090E00E94943281E080931C02F6
:101EE0000E942F0F60E074E184E090E00E94B23223
:101EF00060E086E090E00E94943260E087E090E04D
:101F00000E94943240E050E0BA0188E090E00E94E4
:101F1000A63260E083E290E00E94943260E08CE0C0
:101F200090E00E94943260E08DE090E00E94943254
:101F300019821A821B821C821D821E821F821886B1
:101F400048E050E067E170E0CE0101960E948432E3
:101F500040E050E0BA018FE190E00E94A63280E0BC
:101F60000E940B240E943A240E94540F2896E2E01B
:101F70000C9409320E945C0F0895682F8EE090E067
:101F80000E9494320895A6E0B0E0E9ECFFE00C94E2
:101F9000EB310E9477288C018091B7029091B802B2
:101FA0008017910781F019821A820E947728682F82
:101FB00049815A81792F80E090E00E94CE051093EC
:101FC000B8020093B7022696E4E00C9407320E9410
:101FD0001E136093C7027093C8028093C902909346
:101FE000CA026093C3027093C4028093C5029093A7
:101FF000C6020895089508950E94FA0F089508955D
:102000000E94FF0F0E94FC0F089508950E94051082
:10201000089508950E9409100E940610089581E015
:10202000089588E393E10E945E180E94831C0E9439
:10203000FB0F0E94001008950E94631508950895F3
:10204000089508950E941F100E9420100E942110E0
:1020500008950E94190F811102C00E94BA0F0E94B8
:10206000250F8093CB020E94350F9093310380930C
:1020700030030E94611E0E942A0F0E94660980910F
:102080001B020E947E0908950E946E280E94F81289
:102090000E944A240E9483150E946C140E942910F9
:1020A0000E94A8050E94641E0E94F01B0E949F15BA
:1020B0000E940A100895A6E0B0E0E1E6F0E10C9479
:1020C000E4310E940F1081110EC00E94C30F0E94C4
:1020D00063150E9466150E94821C0E94B505269613
:1020E000EBE00C9400320E94C61489EBA82E82E02B
:1020F000B82E750110E0F70101917F01812F0E9438
:1021000068131F5F1A3009F441C00817A1F38091CA
:10211000CB0281FD0E946E130E941C10C82E10E09D
:1021200099249394812F0E946813082FF5018191BF
:102130005F01081729F1F12CEE24E394D02ED82664
:102140008D2D8E21A9F0CC2099F0F9821A830E945E
:1021500077289C838B839D8291E0802F8E2109F4C8
:1021600090E049815A816B817C818D810E94CE05EE
:10217000F394EE0CF7E0FF12E3CFF5013197008303
:102180001F5F1A3079F60E94E70FA1CF0813BFCF67
:102190009CCF1F93CF93DF930E940712EC01C115D0
:1021A00080E5D807F0F5C11580E4D80708F09CC099
:1021B000C03ED10520F5CD3CD10508F082C0C83A1B
:1021C000D10578F4C53AD10508F073C0C130D10506
:1021D00019F1209709F1C430D105F0F4D0E0C0E046
:1021E0001BC0C33CD105D0F7C85AD0E0CC0FDD1FCF
:1021F000CC55DE4F0990D881C02DD4640DC0C115D7
:1022000080E2D80708F0D1C0C11581E0D80708F0F6
:102210005AC0C83ED10510F7CE01DF91CF911F9172
:102220000895C03682E5D80718F5C03482E5D8078E
:1022300008F06BC0C03282E5D80708F05FC0C11556
:1022400082E5D80708F497C02C2F2695269580E2C2
:10225000289F900111248C2F8370C1E0D0E002C030
:10226000CC0FDD1F8A95E2F7C22BD32BDD68D4CFCC
:10227000C03A82E5D80760F4C03882E5D80708F490
:1022800059C0CF71D0E0DC2FCC27C46FD06AC4CF47
:10229000C03C82E5D80708F462C0C03E82E5D8079A
:1022A00008F09CCFDC2FCC27CC27DF71C06FD06A21
:1022B000B3CFC55AD0E0C652DE4FC881D0E0D0645B
:1022C000ABCFD065A9CF8D2F0E94A912182FCE01B8
:1022D00099270E940712C12FD0E0DC2FCC27CC27F2
:1022E000DF71C82BD92B98CFCE0199270E940712F6
:1022F000CC27DF70C82BD92BD06A8ECFCF71D0E01E
:10230000DC2FCC27C16FD06A87CF2C2F269526953E
:10231000277080E2289F900111248C2F8370C1E0E8
:10232000D0E002C0CC0FDD1F8A95E2F7C22BD32B81
:10233000DC6872CF2C2F26952695277080E2289F87
:10234000900111248C2F8370C1E0D0E002C0CC0F2B
:10235000DD1F8A95E2F7C22BD32BDA685DCF8C2F75
:102360008F710E94A912C82FD0E0DC2FCC27CC2778
:10237000DF71D06251CF8C2F8F710E94A91255E06E
:10238000D695C7955A95E1F7CF70D0E0DC2FCC27D2
:10239000282F30E084FF05C044E0220F331F4A9508
:1023A000E1F7C22BD32BD06937CF8D2F8F710E94CD
:1023B000A912182FCE0199270E940712C12FD0E031
:1023C000DC2FCC27CC27DF71C82BD92BD2CF462FBF
:1023D0002091180330911903232B89F4703F39F4AD
:1023E000603F69F4809154039091550308957A30C9
:1023F00030F4673020F4672F0E949D1F089590E00D
:1024000080E008950E94E7110E94C9100895823863
:102410009105B9F1B0F48133910509F47DC048F418
:102420008932910509F46DC08A32910509F47BC0A7
:1024300008958533910509F45FC08933910509F149
:102440000895833E9105D9F138F4803E910529F134
:10245000823E910579F10895863E9105D9F1873E36
:10246000910509F43EC0843E910541F52091310368
:1024700021FF24C08091300384FD19C087EE90E0D5
:10248000089520913003237009F05AC02091310340
:1024900023FF14C089E290E008952091300320FDCD
:1024A00038C03091310330FF09C024FF43C090E0B1
:1024B00080E008952091300322FDF7CF0895209108
:1024C000300322FD3AC03091310330FD39C024FF82
:1024D000F5CFEDCF2091300323FFF0CF24FDE7CFE0
:1024E000CDCF2091300323FD2EC03091310331FF39
:1024F000EECF84EE90E008952091300325FFDECFEB
:10250000C9CF2091300325FD21C02091310323FF45
:10251000D5CF89E390E0D2CF2091300326FFCECFF4
:102520008AE290E008952091300326FFC7CF81E32F
:1025300090E0089583EE90E0089582EE90E0089593
:1025400080EE90E0089586EE90E0089585E390E0B7
:1025500008959091300392FF10C041E0282F24711C
:10256000243009F040E031E0282F2871283009F0AC
:1025700030E0431711F02CE0822793FF10C041E0B8
:10258000282F2471243109F040E031E0282F2871F0
:10259000283109F030E0431711F02CE08227309108
:1025A000310330FF10C051E0282F2171213009F094
:1025B00050E041E0282F2871283009F040E05417FE
:1025C00011F029E0822731FF10C041E0282F21714E
:1025D000213109F040E031E0282F2871283109F03D
:1025E00030E0431711F029E0822794FD877E08959B
:1025F0001092320310923303109234031092350379
:102600000895CF92DF92EF92FF926B017C010E94BE
:10261000631581110EC00E948328C61AD70AE80AE2
:10262000F90AC0923203D0923303E0923403F0925D
:102630003503FF90EF90DF90CF9008950F931F9395
:102640000E946315882329F00E9483281F910F910F
:1026500008950E9483280091320310913303209142
:10266000340330913503600F711F821F931FEECF2B
:1026700080E00895CF939C01205E3245C1E0203276
:10268000310538F4FB01C581C11103C08F710E946F
:10269000C3048C2FCF91089508950E944C13089580
:1026A00008950E9450130895E82FF0E0EF5BFC4F6F
:1026B000208130E081E090E002C0880F991F6A9588
:1026C000E2F72823392381E0232B09F480E00895E1
:1026D000E82FF0E0EF5BFC4F80810895089580EAD9
:1026E0008A95F1F7089500C008950E946F13089528
:1026F00008950E9478130895A5E0B0E0E2E8F3E1C0
:102700000C94E9310E946315F82E60914B038823E5
:1027100009F440C085E0E82E8E010F5F1F4FF801DD
:102720008E2D11928A95E9F7862F90E0B8018F5B84
:102730009C4F0E94AF158823B9F08091360390E03A
:1027400045E050E0B8018F5B9C4F0E94533221E07E
:102750002093CC02892B91F4F12C0E9451138F2DE0
:102760002596E6E00C9405328091CC028823A1F3F3
:10277000F8011192EA94E9F71092CC02A091360385
:10278000B0E0AF5BBC4F85E0F80101900D928A95F7
:10279000E1F7E3CF70E06F5B7C4F8091360390E010
:1027A0008F5B9C4F0E9436160E947913D8CFF89405
:1027B000E82FE295EF70F0E031A1282F2F7081E033
:1027C00090E001C0880F2A95EAF7982F90959323FF
:1027D00091A392A1892B82A3789408950F931F93BC
:1027E000CF93DF93CBE0D1E089918F3F11F00E942E
:1027F000D71381E0C031D807B9F7C4E0D1E00BE0CE
:1028000011E089918F3F11F00E94D7130C171D071B
:10281000C1F7DF91CF911F910F910895B0E0A0E033
:10282000E4E1F4E10C94E731EC01D62E062F10E040
:10283000C801855F9E4F7C01FC0180818F3F09F4B8
:1028400044C0F894E82FE295EF70F0E091A18F700A
:1028500021E030E001C0220F8A95EAF7892F822B10
:1028600081A382A12095282322A378940E94731328
:10287000E4E0F1E031E0C12C21912F3F59F1A22F8A
:10288000A295AF70B0E090968C9190E02F7002C04E
:10289000959587952A95E2F780FD1CC0832FC82A5D
:1028A000330F81E0EB30F80739F7F70180818F3F74
:1028B00011F00E94D71361E0C11001C060E08D2DBE
:1028C0000E947513C00FD11FC882CDB7DEB7E8E0F4
:1028D0000C94033280E0E3CFACE0B0E0E2E7F4E157
:1028E0000C94ED318091100181112CC085E0E7E559
:1028F000F1E0DE01189601900D928A95E1F7888546
:1029000080930B01898580930C018A8580930D014A
:102910008B8580930E018C8580930F0187E0ECE519
:10292000F1E0DE01119601900D928A95E1F7FE012A
:102930003196A4E0B1E0CE01089621912D93E817DD
:10294000F907D9F78091100195E0811190E09093FB
:102950004B0385E0891B809336030E94EE138AE0C7
:10296000E1E4F3E0DF01982F1D929A95E9F7E7E3A0
:10297000F3E0DF011D928A95E9F785E00E940415D6
:102980000E944D132C96E2E00C940932AAE0B0E0CC
:10299000ECECF4E10C94EA318E010F5F1F4F8AE0FA
:1029A000F80111928A95E9F7F12C6F2DC8010E9468
:1029B0000E14F394F5E0FF12F8CF4AE050E0B801AE
:1029C00087E393E00E94533221E0009709F420E06E
:1029D000892B41F08AE0F801A7E3B3E001900D9262
:1029E0008A95E1F760914B0370E06F5B7C4F45E0A7
:1029F00087E393E00E940515182F0E947C13812B1A
:102A00002A96E5E00C9406320895B0E0A0E0EBE0F1
:102A1000F5E10C94E7316C017B01042FC22F2223D6
:102A200079F081E08093CF020E9477289093CE02C4
:102A30008093CD0280E0CDB7DEB7E8E00C9403329E
:102A4000D091CF02DD23B1F38091CD029091CE02DF
:102A50000E94F527059770F310E0A801B601C701A1
:102A60000E945332892B31F0A801B601C7010E94A0
:102A70006032CD2F1092CF028C2FDDCF0E948328A1
:102A80006093D3027093D4028093D5029093D602C0
:102A900008958093D20208958091D9028A3010F06F
:102AA0001092D2028091D2020895CF930E94AF314A
:102AB000C82F811102C00E94AA318C2FCF91089596
:102AC0008091D80208958091D70208958091D20212
:102AD000811115C00E946315811111C06091D3024C
:102AE0007091D4028091D5029091D6020E94FF2766
:102AF000653378408105910510F00E94C42808953F
:102B00000E94631508950E9455158093D7020E9474
:102B100080158093D8020E946015809310010E9456
:102B200060156EE1882349F080E00E9449190E94F7
:102B3000631581110E94E51508958EE1F6CF0E947C
:102B40006315811104C00E94E8150E943E15089586
:102B500081E09091D9029A3008F080E008950F93B7
:102B60001F93CF93DF93EC018B018091D9028A30C0
:102B7000B8F4B801CE010E943316C82F811122C0CB
:102B80008091D9028F3FB9F40E9477289093D102A7
:102B90008093D0028C2FDF91CF911F910F910895D8
:102BA0008091D0029091D1020E94F527843F9140FC
:102BB00000F7C0E0EFCF8F5F8093D9028A3020F713
:102BC000C1E0E8CF1092D902E5CF0E9429290895EB
:102BD0000E942C290895B0E0A0E0E1EFF5E10C940B
:102BE000E8317901C82F880FDD0B41155105A9F097
:102BF000FE0193E0EE0FFF1F9A95E1F7EF5EFE4FA7
:102C00008181928186529D4F208130E04217530787
:102C100008F49A01A9010E946032CE010E94152A8F
:102C2000D82E8823D1F001151105B9F083E0CC0F1F
:102C3000DD1F8A95E1F7FE01EF5EFE4F438150E014
:102C40000417150708F4A801CF5EDE4F6C817D8163
:102C500066527D4FC7010E9460328D2DCDB7DEB721
:102C6000E7E00C9404320E94BB1708950E94EC1711
:102C70000895A1E0B0E0EFE3F6E10C94EB3181E0E0
:102C800089830E944C1581110FC010E000E030E0F4
:102C900020E041E050E0BE016F5F7F4F85E00E9481
:102CA000EB1589830E94491589812196E4E00C94F3
:102CB0000732A4E0B0E0EFE5F6E10C94EB3160916F
:102CC00006037091070380910803909109030E9405
:102CD000FF2711E0643671058105910518F10E9406
:102CE0001E136E5F7F4F8F4F9F4F69837A838B8355
:102CF0009C8310E000E030E020E044E050E0BE01C2
:102D00006F5F7F4F83E00E94EB15182F882351F0EF
:102D10000E9483286093060370930703809308033F
:102D200090930903812F2496E4E00C940732B0E0DD
:102D3000A0E0EDE9F6E10C94E531C82F7B01D42F3A
:102D400069015801FB0160817181828193810E9438
:102D5000FF27643671058105910510F4DD23C9F064
:102D600010E000E030E020E0A501B6018C2F0E94C9
:102D7000EB15C82F882339F00E948328F701608360
:102D80007183828393838C2FCDB7DEB7EAE00C94F6
:102D90000132C1E0F8CFABE0B0E0E1EDF6E10C9438
:102DA000EB31CE0101960E94491C41E08B858111D7
:102DB00001C040E00BE010E09E012F5F3F4F6AE052
:102DC00073E084E00E949716182F81110E94461C20
:102DD000812F2B96E4E00C940732B0E0A0E0E3EF03
:102DE000F6E10C94E5317C015B016A010E94A815B3
:102DF00001E010E0882311F00AE010E0C1E0D0E02B
:102E0000B501C701F6010995811104C021960C177F
:102E10001D072CF4CDB7DEB7EAE00C940132CC9F4D
:102E20009001CD9F300D300D112490E080E045E3FE
:102E30004A95F1F70000019682179307C1F7E0CF9A
:102E40000F931F93CF93DF93EC016091DD0170919D
:102E5000DE016A5F7F4F45E050E00E94533241E05F
:102E6000892B09F440E005E010E09E0162E073E088
:102E700082E00E949716DF91CF911F910F910895E4
:102E8000A6E0B0E0E6E4F7E10C94E5317B01C09008
:102E9000DD01D090DE0101E010E09E012A5F3F4F8E
:102EA00050E040E070E060E080E00E94EB15182FF9
:102EB000882309F448C056018FEFA81AB80A609118
:102EC000FE027091FF0280910003909101030E9425
:102ED000FF27643671058105910568F105E010E072
:102EE0009E012F5F3F4F50E040E070E060E081E0E6
:102EF0000E94EB15D82E65E070E0C5010E94651EAA
:102F000011E09E81981310E01D2141F10E94832859
:102F10006093FE027093FF0280930003909301037D
:102F200085E0FE013196A9EFB2E001900D928A95FD
:102F3000E1F711E013C065E070E0C5010E94651E75
:102F40009E818913CBCF85E0F6013196DE01119683
:102F500001900D928A95E1F71111E2CF85E0E9EF3A
:102F6000F2E0D70101900D928A95E1F7812F269624
:102F7000EAE00C9401320F931F93CF93DF93EC019F
:102F80008B0140E457E10E94ED16811106C080E0FC
:102F9000DF91CF911F910F91089540E257E1B80161
:102FA000CE010E94ED16882391F349E556E1B80160
:102FB000CE010E94ED16882351F34BEC56E1B80187
:102FC000CE010E94ED16882311F349E356E1B801C2
:102FD000CE010E94ED16DCCFABE0B0E0E2EFF7E10E
:102FE0000C94E7317C010091DD011091DE01C801F4
:102FF000019625E0FB01DC0101900D922A95E1F795
:1030000065E070E00E94651EF8018083369685E0D9
:10301000D70101900D928A95E1F7F80163857485D7
:1030200085859685C090F502D090F602E090F70273
:10303000F090F8026C157D058E059F0551F06093A8
:10304000F5027093F6028093F7029093F8020E94C3
:1030500001138BE0F8013F96DE01119601900D926D
:103060008A95E1F7F801118E8B85882329F060E0BD
:10307000CE0101960E945C1CF801828D0E944915C8
:103080002B96E8E00C9403320E945B1008950E9496
:1030900010280E94122C0E9411100E942C2C0E94B9
:1030A00044100E94392C0E943E2C0E9444180E9419
:1030B000582C0E94DD2A0E942210F5CF9093F9012E
:1030C0008093F80108950F931F93CF938C01FB0118
:1030D000C581CC2309F447C00E94B70D8272F80164
:1030E000E052F847EB30F10538F4EA52FD4C0C940D
:1030F000D0310E94E21BC0E08C2FCF911F910F9125
:103100000895882329F00E94D01BF5CF8823D9F396
:103110000E94C01BF0CF882329F00E94471BEBCFF1
:103120008823D9F30E94381BE6CF882329F00E9418
:10313000691BE1CF8823D9F30E94581BDCCF882379
:1031400029F00E948B1BD7CF8823D9F30E947A1BCA
:10315000D2CF882329F00E942C1ACDCF8823D9F30F
:103160000E940C1AC8CFC1E0C7CFEF92FF920F9315
:103170001F93CF93DF939B01682F31110EC044231F
:1031800029F0E82FF0E0E05BFD4F6491762F862F69
:10319000CDB7DEB7E6E00C940532C32FD0E0E82FC0
:1031A000F0E0442321F0E05BFD4FE491F0E046E0E5
:1031B000249FC00111240FEF10E0B8010E94BC3120
:1031C000AB01822F90E0880F991F25E5249FB00165
:1031D000259F700D1124861B970B982F990F980F20
:1031E000B8016C1B7D0B6E9FD0016F9FB00D7E9F51
:1031F000B00D11248B2F939F90011124232F33277F
:10320000B801621B730B6E9F90016F9F300D7E9F04
:10321000300D11247801E91AF108EC9EB001ED9E01
:10322000700DFC9E700D1124672F7727061B170B5E
:103230000E9FE0010F9FD00D1E9FD00D11247D2FFA
:103240009E2F4230510599F048F44115510569F01F
:103250004130510581F07B2F832F07C04430510549
:1032600069F080F046305105B1F7692F91CF9B2F5F
:103270008D2F7E2FFACF7E2F932FF7CF9D2F7B2F71
:103280008E2FF3CF732F9B2FFBCF41E00E94B518F9
:103290000895E1E4F1E080836183089580914C0317
:1032A000982F9C7F71F480914C038370846080938D
:1032B0004C0380914F03893718F088E780934F03C0
:1032C0000895883080F7F5CFB0E0A0E0EAE6F9E1B4
:1032D0000C94E73188E090E00E9478326B017C0129
:1032E00083E290E00E947032282F30E040E050E00E
:1032F00060E070E080E090E000E20E941432B22FC3
:10330000A32FF42FE52FD62FC72F97018601BC29B5
:10331000A12BFE295E2F532B2B2F3A2F4F2F6D2FD2
:103320007C2FCDB7DEB7E8E00C940332B0E0A0E02C
:10333000ECE9F9E10C94E33149015A016B017C019C
:103340000E944E198401A4016A2D7B2D88E090E033
:103350000E94A63294014A2D5B2DB601C70100E2FE
:103360000E942F32622F83E290E00E949432CDB708
:10337000DEB7ECE00C94FF31ECE4F3E02081318126
:103380004281538164817581868197810E9496195B
:103390000895ECE4F3E085E0808380E7818388EEA4
:1033A000828388E783831482A1E1B3E012968C9133
:1033B0001297836012968C93758125E030E748EE72
:1033C00058E760E0868197810E9496190895809160
:1033D0004C0380FF03C086958695089580E008958C
:1033E00090915003933018F49F5F9093500388237B
:1033F00091F020914C0330914D0340914E03509138
:103400004F0360915003709151038091520390914A
:1034100053030E949619089581E00E94F0190895BF
:1034200090915003992319F0915090935003882361
:1034300091F020914C0330914D0340914E035091F7
:103440004F0360915003709151038091520390910A
:1034500053030E949619089581E00E94101A08955E
:1034600080915003089580935003662389F0209142
:103470004C0330914D0340914E0350914F03709196
:103480005103682F80915203909153030E94961923
:10349000089560E00E94331A089580914D030895C5
:1034A00080914E03089580914F0308950F931F93C9
:1034B000CF9380914C0380FF09C0E091E701F09128
:1034C000E8010995CF911F910F910895C091430193
:1034D0000091E3011091E40180914401C81768F75D
:1034E000809141019C2F981B892F20E040E060E0F3
:1034F00090E0F8010995CF5FEFCFECE4F3E0208195
:103500002E7F208331814281538164817581868140
:1035100097810E949619E1E1F3E0828181608283C4
:103520000E94561A0895ECE4F3E080818E7F808338
:10353000E1E1F3E08281816082830E94561A08955E
:1035400080910F0381110AC081E080930F03809165
:103550004C03817080930E030E94931A0895EF929A
:10356000FF920F931F93CF93DF93D82F162F042F23
:1035700080914C0380FF0CC0C0914301E090E301B7
:10358000F090E40180914401C81738F00E94561A67
:10359000CDB7DEB7E6E00C940532809141019C2F57
:1035A000981B892F202F412F6D2F90E0F70109954F
:1035B000CF5FE8CF0F931F93CF93DF93182FD62FB2
:1035C000C42F022F80914C0380FF42C090914D0385
:1035D000911308C090914E03961304C090914F032D
:1035E000941729F090911303926090931303E82F9E
:1035F000E695E695F0E0E152FE4F9081909311033D
:103600008C7F843071F48C2FC93708F088E7612FE4
:103610007D2F0E944519962F672F482F892F0E94D2
:10362000AF1A10934D03D0934E03C0934F03002362
:1036300079F020914C036091500370915103312F28
:103640004D2F5C2F80915203909153030E94961945
:10365000DF91CF911F910F910895ECE4F3E09181F8
:10366000282F4381628188E0890F0E94DA1A089529
:1036700081E00E942D1B0895ECE4F3E09181282F56
:103680004381628188EF890F0E94DA1A089581E0F0
:103690000E943C1B0895ECE4F3E0628128E0620F95
:1036A00008F46FEF282F438181810E94DA1A089570
:1036B00081E00E944B1B0895ECE4F3E0628128E076
:1036C000621B08F460E0282F438181810E94DA1A8E
:1036D000089581E00E945C1B0895ECE4F3E04381CF
:1036E00028E0420F08F44FEF282F628181810E9469
:1036F000DA1A089581E00E946D1B0895ECE4F3E06E
:10370000438128E0421B08F440E0282F6281818138
:103710000E94DA1A089581E00E947E1B089520E03D
:103720000E94DA1A089520914C0320FF23C02370D1
:10373000246020934C0380911303816080931303D2
:10374000662381F030914D0340914E0350914F0319
:1037500060915003709151038091520390915303F3
:103760000E94961940914F0360914E0380914D0342
:103770000E948F1B0895682F81E00E94931B08957B
:1037800081E00E94BB1B0895682F90914C03969591
:1037900096958FEF890F09F481E00E94931B08959D
:1037A00081E00E94C41B089561E00E94931B08956C
:1037B000ECE4F3E0808181608083869586950E94A9
:1037C000D41B089580914C0380FF03C00E947D1A92
:1037D00008950E94D81B089560E00E94931B0895ED
:1037E0008091100381113FC00E94641920934C0303
:1037F00030934D0340934E0350934F036093500317
:103800007093510380935203909353038091130359
:103810008360809313032C7FA1F40E94C9190E9436
:10382000641920934C0330934D0340934E035093FF
:103830004F0360935003709351038093520390930E
:1038400053030E944E19E091E101F091E2010995C4
:1038500080914C0380FF04C0869586950E94EC1BE6
:1038600081E0809310030895ECE4F3E080818160AF
:103870008083869586950E94EC1B089510920F0315
:1038800080910E0381110E94341C0895109213033D
:10389000089528E0ECE4F3E0DC0101900D922A9514
:1038A000E1F7209111033091120340911303FC01C1
:1038B00020873187428708951F93CF93DF93EC01D0
:1038C000162F8A8580FF0DC0888180FF17C08091E8
:1038D0004C03816080934C038881869586950E9475
:1038E000931B8A8581FF06C0212F4B816A818981C4
:1038F0000E94DA1ADF91CF911F9108950E94931AC6
:10390000F0CF089508950895A8E0B0E0EAE8FCE15A
:103910000C94E9318C01603269F5DC011196EC916F
:103920001197EE3038F5F0E0EF51FD4C0C94D031AA
:1039300088E0E3E6F1E0DE01119601900D928A95B0
:10394000E1F780E2F80111928A95E9F786E0D80163
:103950008C9311961C92119712961C9212971396A3
:103960001C92139788E0FE013196149601900D92F7
:103970008A95E1F72896E6E00C94053284EAF8018E
:10398000808381E0818312821382F4CF13968C911D
:103990001397682F70E0762F662712968C91860F0A
:1039A000972F911D092E000CAA0BBB0B25E0880F49
:1039B000991FAA1FBB1F2A95D1F7AC01BD01405E1C
:1039C0005F4F6F4F7F4F481759076A077B0790F289
:1039D000843AE1E09E07A105B10560F6453AF1E0C1
:1039E0005F076105710520F044EA51E060E070E096
:1039F000481B590BBC01605B7C4FC8010E944A32D6
:103A0000B9CF40E250E06FEF70E00E9469328091E0
:103A10001A03D8018C938091180311968C931197F7
:103A200012961C92129713961C92139714961C923E
:103A3000149781E015968C939DCF81E090E0909350
:103A400019038093180382E390E090931703809307
:103A500016030E94772890931503809314038ACF4E
:103A60008091180390911903892B91F160E080E017
:103A70000E945413E82E61E080E00E945413F82E57
:103A800080911403909115030E94F52785369105C6
:103A900050F1EE2041F1FF2031F10E947728909300
:103AA00015038093140380911603909117030197D7
:103AB0009093170380931603892B51F410921903E6
:103AC0001092180381E090E090931B0380931A03F7
:103AD00080911A03F801808380911803818380917B
:103AE0001603828347CF82E390E09093170380937D
:103AF0001603EECF10921B0310921A033BCF40E245
:103B000050E06FEF70E00E94693234CF12968C91D2
:103B1000129781112FCF80E2F80111928A95E9F76F
:103B20001C9211961C92119712961C9223CFA6E01C
:103B3000B0E0EDE9FDE10C94ED31909355038093F5
:103B40005403811520E2920730F40E940E04269659
:103B5000E2E00C94093280EF89838A830E947728FF
:103B60008160682F9C838B8349815A817C8181E0AD
:103B700091E00E94CE05EBCFA6E0B0E0E2ECFDE1E3
:103B80000C94ED319093550380935403811520E2FA
:103B9000920730F40E9424042696E2E00C94093245
:103BA00080EF89838A830E9477288160682F9C83B5
:103BB0008B8349815A817C8181E090E00E94CE050F
:103BC000EBCFCF93DF93EC010E94971DCE010E94B3
:103BD000BC1DDF91CF91089581E00895549A089516
:103BE000FC01EE0FFF1FE80FF91FEA5AFC4F61833B
:103BF000408322830895E6E5F3E081836083428376
:103C0000339694E0EA30F907C1F708953BB13F7E5F
:103C10002BB120614FB7F89486E593E0FC015191F8
:103C2000CF0168E02BB9000000C057FF3BB9550F2A
:103C3000000000C000C000C03BB900C06A9591F709
:103C4000F4E08A309F0751F74FBF8FE594E001976A
:103C5000F1F700C0000008950E94120F0895CF935D
:103C60000E946015811114C0C6E085E00E946813AF
:103C700021E030E002C0220F331FCA95E2F790E046
:103C80002823392381E0232B09F480E0CF91089584
:103C9000C0E080E0EBCF0E94C6142FEF86E791E0F2
:103CA000215080409040E1F700C000000E94C614FF
:103CB0000E942F1E882321F00E942C1E0E94B328F0
:103CC00008950E944B1E08950895FC01680F791F06
:103CD0008FEF91E3E617F70709F408952191822702
:103CE00028E030E087FF06C0880F8927215031097E
:103CF000C9F7F0CF880FFACF83E0089550E0440F62
:103D0000551F9EE0699F400D511D11249CE8899F1D
:103D1000400D511D1124CA01889608950F931F93D9
:103D2000CF93DF938330C8F46A30B8F44730A8F4F7
:103D30000E947E1E8C010E947032C82FD0E0DC2FC2
:103D4000CC27C80101960E9470329E01282BC90120
:103D5000DF91CF911F910F91089590E080E0F8CF0F
:103D60000F931F93CF93DF93122F032F833078F499
:103D70006A3068F4473058F40E947E1EEC01602FD0
:103D80000E949432612FCE0101960E949432DF91FD
:103D9000CF911F910F910895EF92FF921F93CF93B0
:103DA000DF93E0901A03F0901B0381E090E0909382
:103DB0001B0380931A03D0E0C0E011C0412F6C2F89
:103DC0008D2F0E94B7039C01412F6C2F8D2F0E94D5
:103DD000B01E1F5F173091F7CF5FCA3011F010E0AF
:103DE000EDCFDF5FD33041F7F0921B03E0921A036F
:103DF000DF91CF911F91FF90EF900895EF92FF9286
:103E00000F931F93CF93DF93EC018A017C01E60EA1
:103E1000F71ECE018896CE15DF0529F4CDB7DEB7A3
:103E2000E6E00C940532C43A21E0D20740F40E9447
:103E30007032F80180830F5F1F4F2196EACFF8019F
:103E40001082F9CFB0E0A0E0E8E2FFE10C94DF31AE
:103E5000EC017B018A01843A9140D8F484EA91E034
:103E60008C1B9D0B86179707A0F03E0138E2630E6E
:103E7000711C80911A0390911B032E01460E571E50
:103E8000892B61F07E01C7018896E414F50409F0DE
:103E900043C0CDB7DEB7E0E10C94FB316E0181E0A9
:103EA000C822DD24C0FF0FC0CE0187960E94703269
:103EB000F801908189279827892781159C4719F453
:103EC0008FEFF8018083570140FE13C0F1E0AF1A75
:103ED000B10848018A0C9B1CC3018E0D9F1D0E94D6
:103EE0007032F401908181159C4719F48FEFF40131
:103EF0008083F801EC0DFD1D2FEFCA14DB0410F6D2
:103F00009081818181159C4711F42083218382E077
:103F1000C80ED11C3296F1CFE4EAEE16E1E0FE06BF
:103F200040F4F701EC1BFD0BE00FF11F60810E94D4
:103F30009432FFEFEF1AFF0AA6CF833038F46A30CD
:103F400028F4473018F40E948E1E089590E080E017
:103F5000089580E1089584E392E00895EF92FF923E
:103F60000F931F93CF93DF93EC018A017C01E60E40
:103F7000F71ECE0184539E4FCE15DF0529F4CDB731
:103F8000DEB7E6E00C940532C43322E0D20740F4F9
:103F90000E947032F80180830F5F1F4F2196E9CF96
:103FA000F8011082F9CFB0E0A0E0E9EDFFE10C9458
:103FB000E7317C016A018C01060F171FEC01CE016D
:103FC00084539E4FC017D10729F4CDB7DEB7E8E080
:103FD0000C940332C43322E0D20740F4FE01EE1900
:103FE000FF09EC0DFD1D60810E9494322196E7CF00
:103FF000CF93DF93CCECD1E060E0CE010E9494320D
:104000002196C11584E0D807B9F7DF91CF910895C3
:10401000A4E0B0E0EEE0F0E20C94E031F82E2FE006
:10402000281708F4B1C08FEF93E00E94703281111D
:10403000ABC00CEC11E0F11039C034E0C32ECE015E
:1040400001965C0155245A94F5012C2D11922A9564
:10405000E9F778014FEFE41AF40AC8010E947032C0
:104060008983882309F490C0813009F088C0480111
:1040700052E0850E911CC7010E947032D82E8A83AF
:10408000882309F481C08FEF8D0D8330E8F4780127
:1040900083E0E80EF11CC4010E9470328B838823F8
:1040A00019F0C5010E94FD228701CECF011544E021
:1040B000140709F469C0C8010E947032811101C05F
:1040C000FA940F5F1F4FB7CF8BEF8D0D833060F5E4
:1040D000380193E0690E711CC4010E9470328B8319
:1040E0007301882309F37801E4E0EE0EF11CC301AB
:1040F0000E9470328C838823B9F28B819C8181303D
:10410000FFEF9F0710F0982F882726E0D21631F096
:1041100047E0D41631F00E94E11DC6CF0E94971DE2
:10412000C3CF0E94BC1DC0CF54E07401D512BCCFD8
:10413000C4010E947032D82E780184E0E80EF11C90
:10414000C80103960E947032DD20F1F08823E1F06F
:10415000E82FE150FF0B5E9EC0015F9E900D112481
:104160004D2D4150550B840F951F019708F49CCF9E
:10417000EFE9FFE03197F1F700C00000F6CF60E013
:10418000C5010E94E92290CF2496EFE00C94FC3107
:10419000CF93DF93EB0186319C4711F50E94B70D59
:1041A0009D81992399F08A7A91E009F490E09093A7
:1041B0001C03811109C089E20E941D270E949A0EEA
:1041C00080E0DF91CF91089585E3F6CF80911C03C5
:1041D000811104C089E20E943727F0CF85E3FBCF2D
:1041E00081E0EFCFCF93DF93EC01FB018581882342
:1041F00009F4D2C09E0130572332310508F0B2C015
:104200000E94350F9093310380933003FE01E150FB
:10421000F047E232F10520F4E151FD4C0C94D0312D
:104220008091300381608093300393C0809131038B
:104230008860809331038DC0809130038260F3CF1A
:10424000809130038460EFCF809130038860EBCFA2
:10425000809131038160EDCF809131038260E9CF9D
:10426000809130038061DFCF809130038062DBCFAB
:10427000809130038064D7CF0E941B098091300366
:104280008068D1CF809130038C60CDCF8091310395
:104290008360CFCF809130038E7FC5CF8091310373
:1042A000877FC7CF809130038D7FBDCF8091300352
:1042B0008B7FB9CF80913003877FB5CF8091310359
:1042C0008E7FB7CF809131038D7FB3CF8091300344
:1042D0008F7EA9CF809130038F7DA5CF8091300351
:1042E0008F7BA1CF0E941B09809130038F779BCFDA
:1042F00080913003837F97CF809131038C7F99CF5A
:104300008091300382FB992790F921E0922790FB5E
:1043100082F990FB83F987CF80913103982F909594
:1043200091708E7F892B90FB81F983CF9091300320
:10433000892F8F7B96FF806476CF0E941B09909116
:104340003003892F97FB87F980586DCF81E00E9459
:10435000BD0F80913003909131030E943A0F0E946B
:104360001B0980E0DF91CF91089580E0F0CF90911C
:104370003003892F8F7E94FF806155CF9091300359
:10438000892F8E7F90FF81604ECF90913103892FCE
:10439000877F93FF88604DCF81E0E4CFDC01ED9112
:1043A000FC9111978191ED93FC930895B0E0A0E00A
:1043B000ECEDF1E20C94E631E82FF0E0EC50FB4F2D
:1043C000B490282F26952695269530E0F901EC56D5
:1043D000FA4F0491877010E0082E02C015950795DA
:1043E0000A94E2F701701127F901EC57FA4FE490B3
:1043F000F12C082E02C0F594E7940A94E2F791E0BC
:10440000E922FF24F901EC58FA4FC491D0E002C030
:10441000D595C7958A95E2F7C170DD27C62ED12CB8
:104420000115110549F5E114F10431F086EE0E9401
:104430001706C601009771F5B6018B2D0E94810603
:10444000C601009779F5E114F104A1F501151105F4
:1044500031F081EE0E945706C6010097C9F5CD2BB9
:1044600031F08CE20E949906C114D104C9F5CDB790
:10447000DEB7E9E00C94023281EE0E941706C60115
:10448000009789F2EFE9FFE03197F1F700C00000F3
:104490000197F6CFEFE9FFE03197F1F700C0000098
:1044A0000197C8CFEFE9FFE03197F1F700C00000B6
:1044B0000197C7CF86EE0E945706C601009731F2DA
:1044C000EFE9FFE03197F1F700C000000197F6CF68
:1044D000EFE9FFE03197F1F700C000000197BDCF91
:1044E0008FE99FE00197F1F700C0000091E0C91A41
:1044F000D108BACFB0E0A0E0E0E8F2E20C94E631F7
:104500008C017B01D42F8AE0B82EC701F8010995F0
:104510008823A9F0813009F058C0C701F801099536
:10452000C82F813089F4C701F80109950E949906C6
:104530008D2F90E0009709F040C0C111E6CFCDB7B4
:10454000DEB7E9E00C940232823031F4C701F801A1
:1045500009950E941706ECCF833031F4C701F801AA
:1045600009950E945706E4CF843011F7C701F8017E
:104570000995C82FD12CC12C2C2F2053330BC901E6
:104580002A30310568F0C114D10491F28FE99FE01F
:104590000197F1F700C0000091E0C91AD108F3CFEC
:1045A000BC9C9001BD9C300D11246C01C20ED31E29
:1045B000C701F8010995C82FDFCFEFE9FFE0319778
:1045C000F1F700C000000197B5CF6D2F0E94D621F2
:1045D0009CCFA2E0B0E0EFEEF2E20C94ED31462F7A
:1045E0009A838983BE016F5F7F4F8EEC91E20E94B8
:1045F0007A222296E2E00C94093260E00E94E922DD
:1046000008950F931F93CF93DF93C42FD22FFC01F4
:1046100085818823C9F040931F030E9477289093D7
:104620001E0380931D0380E28C0F883040F4C77016
:1046300081E001C0880FCA95EAF70E94A206DF91C7
:10464000CF911F910F91089510911F03141332C041
:1046500080911D0390911E030E94F527883C9105CF
:1046600048F5C0E2CD0F1D17B9F080E2810F883008
:1046700040F4177081E001C0880F1A95EAF70E9494
:10468000A906C83048F481E09D2F977001C0880FBB
:104690009A95EAF70E94A206802F0E949906C830D8
:1046A00070F6D77081E001C0880FDA95EAF70E94B2
:1046B000A906C5CF80E28C0F883008F6C77081E06C
:1046C00001C0880FCA95EAF7F2CF0F93DB0188513A
:1046D0009C4787309105A0F5FC01EF5EFC4C0C94E3
:1046E000D03106E221EE41EE6AE17CE7CD010E9485
:1046F000012380E00F91089507E225EE45EE6BE17E
:104700007CE7F4CF06E221EE40EE68E17CE7EECFF5
:1047100007E225EE44EE69E17CE7E8CF06E221EE10
:1047200042EE6CE17CE7E2CF07E225EE46EE6DE17A
:104730007CE7DCCF08E221E045EE6EE17CE7D6CFF6
:1047400015968C91882319F010921F03D3CF81E026
:10475000D1CF1F93CF93DF9387372CE7920759F080
:10476000C1E088379C47E1F4FB01C581CC2371F19E
:104770000E94EC2306C0FB01C581CC23B1F00E944E
:10478000E9230E9493090E94EF23D82F0E94EC2373
:10479000C82F0E94E9234D2F6C2F0E94BB0AC0E056
:1047A0008C2FDF91CF911F9108950E94E9230E94E1
:1047B0009F090E94EF23182F0E94EC23D82F0E94FC
:1047C000E923412F6D2F0E94BB0AEACF0E94EC2300
:1047D000EECF80914801089580914701089580911E
:1047E0004601089584E290E00E947032803189F49D
:1047F00085E290E00E9470328E3A59F486E290E0B1
:104800000E94703291E0863709F090E0892F817024
:10481000089580E0FCCFCF93C82F6FEF811160E146
:1048200084E290E00E9494326FEFC1116EEA85E25B
:1048300090E00E9494326FEFC11166E786E290E04B
:104840000E949432CF910895089587E290E00E94EB
:104850007032682F70E090E080E008950895CF9363
:10486000C62F0E942E246C2F87E290E00E94943283
:10487000CF91089580E00E940B2460E070E0CB01AE
:104880000E942F240E94CC1E0E94F81F81E00E94EB
:104890000B2408950E9424240E9425240E942E2483
:1048A0000E94F223811102C00E943A2408959C01C3
:1048B000FB018581882351F0A901575740385105E4
:1048C00030F4822F0E94082080E0089581E008954E
:1048D0002FEFFC0120830895CF93DF93EC018881B3
:1048E0008138A9F028F4803871F0DF91CF910895D4
:1048F000823881F08338C9F70E944D1A89830E945B
:10490000501A8A83F2CF0E94531A8983EECF0E94F5
:10491000E719FBCF0E94301AF8CFCF93DF93EC0159
:1049200088818138D9F028F4803869F0DF91CF91FF
:1049300008958238F9F08338C9F70E94531A482F36
:104940006A81898108C0D9810E94501AC82F0E94AB
:104950004D1A4D2F6C2F0E948F1BE8CF89810E942A
:10496000EC1B8981811103C00E94931ADFCF0E9442
:10497000341CDCCF89810E94491AD8CFEF92FF9274
:104980000F931F93CF93DF93EC01162F9881209103
:10499000180330911903232B79F09E3F09F073C05F
:1049A0008981833020F08550833008F06CC0612FFE
:1049B000CE010E94841C67C09E012F5F3F4F9B3039
:1049C00009F4FBC068F5953009F49CC0E0F492301E
:1049D00009F462C040F4913009F452C0612FCE0155
:1049E0000E94682450C0933009F47FC09430B1F71E
:1049F0004B816A8189810E948E1E9827892798277A
:104A00009D838C8340C0973009F48AC008F485C028
:104A1000983009F489C0993009F70E94BC1933C055
:104A2000903109F4A2C000F59D3009F485C008F466
:104A30007FC09E3009F488C09F3081F680911A03B0
:104A400090911B03892BF9F06B8170E06D3171053A
:104A5000D0F489819A81AE014C5F5F4F98278927F6
:104A600098270E94D31F0FC0923109F484C008F424
:104A70007FC0933109F490C09E3F09F0AFCF97CF2C
:104A8000198289E08A83612FCE010E94D42ACDB792
:104A9000DEB7E6E00C9405328981823071F0833014
:104AA00079F0813009F09ACF0E9483280E94D63194
:104AB0006A837B838C839D83E6CF0E942524F6CF77
:104AC00080911A0390911B03892BE9F27E0122E069
:104AD000E20EF11C00E0802F0E946813F701819321
:104AE0007F010F5F0A30B9F7CECF8981823009F09C
:104AF00075CF6A817B818C819D810E94D6310E9415
:104B00002F24C1CF2C813D813227232732274B818F
:104B10006A8189810E94B01EB6CF0E94CC1EB3CF9D
:104B2000C9010E948D24AFCFC9010E946C24ABCF74
:104B30000E94A91F8983A7CF0E94AB1F98278927AE
:104B400098279A8389839FCF6B8170E06D317105BF
:104B500008F099CF89819A81AE014C5F5F4F982709
:104B6000892798270E94AE1F8ECF0E94F81F8BCFF7
:104B70000E947C1EDFCF6B8170E06D31710508F003
:104B800082CF89819A81AE014C5F5F4F9827892738
:104B900098270E94FE1E77CF6B8170E06D31710502
:104BA00008F071CF89819A81AE014C5F5F4F9827E1
:104BB000892798270E94221F66CF80911A0390911F
:104BC0001B03892B09F45FCFCE010E94D42AFFEF8B
:104BD00021EE84E0F15020408040E1F700C0000069
:104BE0000E94B32850CF9093260380932503089505
:104BF0000E946315811103C0809120030895E09104
:104C00002503F0912603309729F00190F081E02DE3
:104C10000995089580E00895E0912503F091260319
:104C2000309721F00280F381E02D09950895E091FD
:104C30002503F0912603309739F026E0DC012C9310
:104C40000480F581E02D09950895A3E0B0E0EBE242
:104C5000F6E20C94ED3120912303309124032817C0
:104C60003907A1F09093240380932303E091250357
:104C7000F0912603309751F023E029839B838A83A8
:104C80000084F185E02DCE01019609952396E2E09E
:104C90000C940932A3E0B0E0E0E5F6E20C94ED31CB
:104CA000209121033091220328173907A1F0909316
:104CB000220380932103E0912503F091260330978E
:104CC00051F024E029839B838A830084F185E02DC1
:104CD000CE01019609952396E2E00C940932CF9318
:104CE000DF93C0910201D091030122960E94B42764
:104CF000813081F48091300387FF0CC0C0910001A6
:104D0000D091010122969EE180E0915028F4DF913C
:104D1000CF91089596E0F8CF29912223B1F38F5FC8
:104D2000F4CFCF93C82F811102C080E024C00E942D
:104D3000B427813011F58091300387FF1EC0EC2F1E
:104D4000E695E695E695EE3180F780910001909129
:104D50000101E80FF92FF11D228130E0C77081E0D9
:104D600090E002C0880F991FCA95E2F728233923E3
:104D700081E0232BD1F2CF9108958091020190918F
:104D80000301FC013296089621912C1721F0E817B7
:104D9000F907D1F7CACF81E0EECF9C01FC01329632
:104DA0009FEF80E04191461751F09F3F19F4411168
:104DB00001C0982F8F5F8630A9F79F3F09F40895AF
:104DC000290F311D97FD3A95F90162830895FC0181
:104DD000329608962191261303C0DF0111971C9289
:104DE000E817F907B9F70895E62FE695E695E695F1
:104DF000EE3168F4E80FF92FF11D677021E030E023
:104E000001C0220F6A95EAF78281822B828308957E
:104E1000E62FE695E695E695EE3170F4E80FF92F6A
:104E2000F11D677021E030E001C0220F6A95EAF7BA
:104E300020958281282322830895CF93C82F0E9432
:104E4000B4276C2F813061F48091300387FF08C054
:104E500080910001909101010E94F426CF91089564
:104E600080910201909103010E94CD26F7CFCF934C
:104E7000C82F0E94B4276C2F813061F480913003D9
:104E800087FF08C080910001909101010E940827CE
:104E9000CF91089580910201909103010E94E7262D
:104EA000F7CF0E94B427813079F48091300387FFD7
:104EB0000BC0E0910001F091010132968EE1DF011B
:104EC0001D928A95E9F70895E0910201F09103019E
:104ED000329686E0F4CF08950E946B2708958111E1
:104EE0000EC081E080934C016091490170914A01AC
:104EF00080914B0190914C010E946C27089582E0B3
:104F0000F1CF83E080934C016091490170914A0197
:104F100080914B0190914C010E946C2708950E9452
:104F20006F27089581E080934C0160914901709151
:104F30004A0180914B0190914C010E946C27089589
:104F40000E949227089591E0811101C090E0909312
:104F50004B016091490170914A0180914B01909100
:104F60004C010E946C27089580914B010895809315
:104F70004A016091490170914A0180914B019091E1
:104F80004C010E946C27089580914A0108958093F6
:104F900049016091490170914A0180914B019091C2
:104FA0004C010E946C27089580914901089508954D
:104FB00008950E94D8270895089508950E94D7273C
:104FC0000895CF930E94DC270E94C6140E94DD271B
:104FD000C0E08C2F0E946813811105C0CF5FCA30DA
:104FE000C1F7CF91089581E0FCCFCF93DF93EC011F
:104FF0000E9477288C1B9D0BDF91CF910895CF9253
:10500000DF92EF92FF926B017C010E9483286C1962
:105010007D098E099F09FF90EF90DF90CF90089552
:1050200085B7806885BF85B7806885BF08951F9262
:105030001FB61F9211248F939F93AF93BF938091BC
:105040002703811113C080910A0490910B04A09151
:105050000C04B0910D044196A11DB11D80930A046A
:1050600090930B04A0930C04B0930D04BF91AF91E7
:105070009F918F911F901FBE1F90189580911204D1
:10508000843031F10E9484051092270388E190E07A
:1050900020E40FB6F894A895809360000FBE20938B
:1050A000600083B7817F846083BF83B7816083BFE3
:1050B0007894889583B78E7F83BF0FB6F894A895B0
:1050C00080916000886180936000109260000FBE44
:1050D00008950E941B090E948D05089582E084BDF9
:1050E00093E095BD9AEF97BD80936E0008952FB71A
:1050F000F89480910A0490910B04A0910C04B09153
:105100000D042FBF08952FB7F89460910A04709191
:105110000B0480910C0490910D042FBF0895789496
:105120001F921FB61F9211248F939F93AF93BF932B
:1051300080910A0490910B04A0910C04B0910D048D
:105140000196A11DB11D80930A0490930B04A093B6
:105150000C04B0930D04BF91AF919F918F911F905C
:105160001FBE1F90189587E797E7909301088093DB
:10517000000888E19AE00FB6F894A8958093600043
:105180000FBE90936000FFCF88E19AE00FB6F894CD
:10519000A895809360000FBE90936000FFCF8EE1D2
:1051A0004A9B02C08150E1F74A9BFECF08955A986E
:1051B00080E28A95F1F75A9A0895FC013BE03A950E
:1051C000F1F798E020E080E031E040E14A95F1F726
:1051D000880F4A9B02C08160232742E04A95F1F77D
:1051E000000040E14A95F1F7915079F790E19A95E6
:1051F000F1F799B132E03A95F1F7000040E14A95B4
:10520000F1F792FB992790F992272081920F9083D2
:105210000895A1E0B0E0EFE0F9E20C94E9311982E1
:105220008C017C01E60EF11C0E151F0541F481E096
:105230009981911180E02196E6E00C9405320E945C
:10524000CF28CE0101960E94DD28F80181938F01BD
:10525000EBCF529A5A9A089552985A9AEA9AE9E6E6
:10526000F0E080818F7C808308956150770B91E01E
:1052700001C0990F6A95EAF720E031E0911108C06A
:10528000222391F05A9A80E28A95F1F75A9808956C
:10529000492F482339F05A9A232740E24A95F1F7DB
:1052A0009695ECCF5A98F9CF5A98EDCFFF920F937D
:1052B0001F93CF93DF93EC018C01060F111DC017D4
:1052C000D10729F4CDB7DEB7E5E00C940632F990AA
:1052D0000E94D72868E08F2D0E943529F0CF1F92B9
:1052E0000F920FB60F9211240F931F932F933F939A
:1052F0004F935F936F937F938F939F93AF93BF93DE
:10530000EF93FF93CF93DF930F92CDB7DEB7198260
:105310000E94CF28CE0101960E94DD28082F069515
:1053200006950695282F22952570902F9570290FA8
:10533000922F937026952695920F982797708981C2
:10534000982B09F05CC0073008F059C080E18A95BD
:10535000F1F75A9A529A82E08A95F1F700C05A986A
:1053600088E0089F80011124D801AF5EBE4F1696D9
:10537000ED91FC9117973097A9F06091DD01709144
:10538000DE0114962D913C911597260F371F11962B
:105390008D919C911297680F791F13964C911397DA
:1053A0008C910995F801EF5EFE4F6381662351F001
:1053B0002091DD013091DE0184819581820F931F60
:1053C0000E9456290E94D72880E18A95F1F75A98C1
:1053D00052985A9A80E18A95F1F7F801EF5EFE4FF4
:1053E0006081662351F02091DD013091DE018181E1
:1053F0009281820F931F0E9409290E94CF280F904B
:10540000DF91CF91FF91EF91BF91AF919F918F91DC
:105410007F916F915F914F913F912F911F910F91CC
:105420000F900FBE0F901F9018950F931F93CF935F
:10543000DF93EC0107970CF04CC0F894529A5A98FD
:1054400085E08A95F1F700009C2F969595708C2F3A
:105450008570980F892F83709695969523E0CC0FD1
:10546000DD1F2A95E1F7980F8E01092B0E94D7289E
:1054700000C068E0802F0E94352980E18A95F1F70D
:1054800052985A9A4A9B1EC087E090E04A991CC0E5
:10549000FE01EF5EFE4F63816623F9F02091DD018E
:1054A0003091DE0184819581820F931F0E9409292A
:1054B000811113C0529A5A9A7894DF91CF911F911B
:1054C0000F91089500C0DECF019729F4529A5A9A9D
:1054D000789480E0F2CF00C0D9CF0E94CF2880E23C
:1054E0008A95F1F75A98529A80E18A95F1F7CF5E42
:1054F000DE4F6881662351F02091DD013091DE019D
:1055000089819A81820F931F0E9456290E94D72871
:10551000789481E0D2CF08959B01BA019091120452
:105520009430E9F48F708093E9009FEF8091E80058
:10553000915085FD06C085ED8A95F1F70000911127
:10554000F5CF8091E80085FF0AC050E040E0C90136
:105550000E94D42C8091E8008E778093E800089513
:1055600043E050E0BC0184E00E948C2A089540E2B0
:1055700050E0BC0184E00E948C2A0895CF93DF9311
:10558000EC010E94B42748E050E0BE0181E00E9497
:105590008C2A88E0FE01A8E2B3E001900D928A9582
:1055A000E1F7DF91CF910895603231F440E250E0AD
:1055B000BC0182E00E948C2A0895A0E2B0E0E3EEF4
:1055C000FAE20C94ED3180911204843009F583E005
:1055D0008093E9008091E80082FF1AC08091E80082
:1055E00090E085FF09C050E040E060E270E0CE014D
:1055F00001960E94232D91E08091E8008B778093A3
:10560000E800992329F060E2CE0101960E94BE24B1
:10561000A096E2E00C94093280911104811109C036
:105620000E94B32E0E94102F8091E200846080932C
:10563000E20008951092110408950E94922781E0DB
:105640000E94A327089560910E0481E0611101C0BA
:1056500080E00E94812708959091120481E09430A7
:1056600009F080E060910E040E948F27089542E0C7
:1056700061EC81E00E942F2E42E261EC84E00E9406
:105680002F2E42E261EC82E00E942F2E42E260EC7B
:1056900083E00E942F2E9091120481E0943009F053
:1056A00080E060910E040E946F2708958091140499
:1056B000833009F463C030F48130E1F1823009F4C1
:1056C000A0C008958A3009F48CC08B3009F471C0F1
:1056D000893009F052C080911304813209F04DC025
:1056E0008091170490911804009719F0029709F01F
:1056F00044C08091E800877F8093E8008091E800B3
:1057000082FF37C09091F3008091F200029731F44C
:105710008091F100813011F0863021F48091F10008
:105720000E94B7278091E8008B778093E8000E9461
:10573000632E23C080911304813AF9F48091E8002C
:10574000877F8093E8008091170490911804892B3B
:1057500061F468E088E293E070E00E94722D80912D
:10576000E8008B778093E800089560E090E080E0A7
:10577000F3CF809112048111C1CF08958091130459
:10578000813AD9F78091170490911804892BA9F7D1
:105790008091E800877F8093E8008091E80080FF97
:1057A000FCCF0E94B4278093F1008091E8008E77AF
:1057B000BCCF80911304813201F78091170490913E
:1057C0001804892BD1F68091E800877F8093E80048
:1057D0000E94632E809115040E94A3270E941B093A
:1057E000089580911304813241F68091E800877F0B
:1057F0008093E8000E94632E809116040E94C727C0
:10580000089580911304813A09F0B7CF8091E800A0
:10581000877F8093E8008091E80080FFFCCF0E94A2
:10582000D427C1CF84B7877F84BF0FB6F894A895DB
:1058300080916000886180936000109260000FBECC
:1058400080E890E00FB6F894809361009093610037
:105850000FBE0E94A02708950E94B32E0E94102F11
:10586000E2EEF0E080818460808378940E948F3142
:1058700008958DE491E00E94F3250895809112042B
:10588000853031F480911204853019F00E94692826
:1058900008950E943E280E94E127882399F3809171
:1058A0001004882379F30E94BE2C0E941B09EACFC2
:1058B00008959A014091190450911A040E94612C94
:1058C0000895492F55274330510521F168F441309F
:1058D000510509F449C04230510509F44AC090E02D
:1058E00080E050E040E029C04132510581F1423270
:1058F0005105A9F76330710590F7FB01EE0FFF1F0B
:10590000E451FE4F4081518167517E4FFB01808100
:1059100090E013C099278130910599F0009741F0EC
:105920008230910589F00397D1F6E4EAF5E002C0F0
:10593000ECEEF5E0849190E0AF01F90151834083F2
:105940000895E4EDF5E0F6CFE2ECF5E0F3CF633057
:10595000710528F6660F771FFB01EE50FE4F408160
:10596000518189E090E0E9CF82E190E04BE456E09C
:10597000E4CF8BE590E040EF55E0DFCF80E189BDDB
:1059800082E189BD09B400FEFDCF8091D8008F7DF2
:105990008093D8008091E00082608093E000809145
:1059A000E00081FDFCCF0895AF92BF92CF92DF92CD
:1059B000FF920F931F93CF93DF936C01EB018A014A
:1059C0000E94822EF82E811123C00115110539F095
:1059D000F80180819181C81BD90BC80ED91EB12C4A
:1059E000A12C2097A9F08091E80085FD22C080912C
:1059F000E8008E778093E80001151105A1F0F80109
:105A000080819181A80EB91EB182A08285E0F82E16
:105A10008F2DDF91CF911F910F91FF90DF90CF904D
:105A2000BF90AF9008950E94822E8823D1F2F82E65
:105A3000EFCFF60181916F018093F1002197FFEF85
:105A4000AF1ABF0ACECFAF92BF92CF92DF92FF9232
:105A50000F931F93CF93DF936C01EB018A010E9498
:105A6000822EF82E811123C00115110539F0F8019D
:105A700080819181C81BD90BC80ED91EB12CA12CD5
:105A80002097A9F08091E80085FD22C08091E80070
:105A90008B778093E80001151105A1F0F801808152
:105AA0009181A80EB91EB182A08285E0F82E8F2DBB
:105AB000DF91CF911F910F91FF90DF90CF90BF901A
:105AC000AF9008950E94822E8823D1F2F82EEFCF56
:105AD0008091F100F60181936F012197FFEFAF1ADA
